S015000062657A2D737665746C6F3831342E7372656367
S113000025C03FC03EC03DC03CC03BC03AC039C023
S113001023C337C036C035C034C033C032C031C04A
S113002030C02FC02EC02DC02CC02BC02AC029C068
S113003028C027C039C43EC443C448C44DC44EC4B8
S113004055C44EC450C47FC481C483C411241FBE8C
S1130050CFEFCDBFDFE3DEBF1EE3A0E0BEE3ECE302
S1130060F0E102C005900D92A830B107D9F72EE354
S1130070A8E0BEE301C01D92A431B207E1F777D333
S1130080DBC7BECF42ED52E066E979E481E090E05F
S113009097D760E080E090E088D708950F931F938E
S11300A0CF93DF93AB01BC0180E0A0E0B0E0D0E0EF
S11300B010E0883028F5942F917080FF0EC0E82F4F
S11300C0F0E0F595E795292F30E002C0220F331FA9
S11300D0EA95E2F7D22BA90F0DC0E82FF0E0F595D1
S11300E0E795292F30E002C0220F331FEA95E2F78B
S11300F0122BB90F76956795579547958F5FD9CF92
S113010080E0C0E000E08C3068F5942F917080FFAF
S113011012C0282F30E035952795E7E0F0E0E21B88
S1130120F30B292F30E002C0220F331FEA95E2F7C8
S1130130C22BA90F11C0282F30E035952795E7E091
S1130140F0E0E21BF30B292F30E002C0220F331F33
S1130150EA95E2F7022BB90F76956795579547957F
S11301608F5FD1CFF89400930E3EC0930D3E109351
S11301700C3ED0930B3EB093053EA093043E78947E
S1130180DF91CF911F910F910895282F853108F0A9
S113019024E181E090E0A0E0B0E004C0880F991F62
S11301A0AA1FBB1F2A95D2F7BC01CD01615071096A
S11301B08109910973DF089520E030E040EA51E4B9
S11301C0C3D5E1D4862FE1DF08950F931F938B01EC
S11301D09C01672B682B692B11F01092133E40E0B1
S11301E050E0BA018091133E8A3008F449C08091EE
S11301F0133E8A508093133E4F5F5F4F6F4F7F4F84
S11302009091080481E08927817090910A3E8913B6
S113021006C09091093E9F5F9093093E02C01092E0
S1130220093E80930A3E9091093E963028F095E06D
S11302309093093E8093123E8091123E882371F080
S11302408091103E9091113E8F3FEFEF9E0751F049
S113025001968093103E9093113E04C01092103E7C
S11302601092113EE091103EF091113E8091063EB5
S11302709091073E8E179F0718F481E080930F3EFC
S1130280401751076207730708F4ACCF1F910F9111
S11302900895CF92DF92EF92FF921F93CF93DF9353
S11302A0C82F162FD22F70E084E190E0BAD5822FA8
S11302B090E0880F991F8093063E9093073E30E0AC
S11302C0C12CD12C76013117E0F420E02417B8F4C6
S11302D0E22FF0E0639FE00DF11D112481E090E036
S11302E002C0880F991FEA95E2F7092E000CAA0BA9
S11302F0BB0BC82AD92AEA2AFB2A2F5FE7CF3F5F24
S1130300E2CF80910F3E811146C0CC2311F013E15E
S113031001C010E01431A8F780910F3E8111F1CF94
S1130320CC23A1F0D701C60188279927A870BB2741
S1130330072E73E1B695A795979587957A95D1F78A
S1130340702DCC0CDD1CEE1CFF1C13C0D701C601A4
S113035081709927AA27BB27072E73E1880F991F5D
S1130360AA1FBB1F7A95D1F7702DF694E794D79402
S1130370C794C82AD92AEA2AFB2AC701B6018EDE05
S11303806D2F70E080E090E020DFCC2311F011505D
S1130390C1CF1F5FBFCFDF91CF911F91FF90EF902F
S11303A0DF90CF900895CF92DF92EF92FF9288EB87
S11303B09BE08093063E9093073EC12CD12C76019E
S11303C080910F3E811110C0CC0CDD1CEE1CFF1C73
S11303D08091123EC82AC701B60160DE66E970E06A
S11303E080E090E0F2DEECCFFF90EF90DF90CF90D2
S11303F00895CF92DF92EF92FF9284E690E080938B
S1130400063E9093073EC12CD12C7601C114D10431
S113041080E1E806F104B8F7C701B6013FDE6AE0FF
S113042070E080E090E0D1DE80910F3E811106C043
S11304308FEFC81AD80AE80AF80AE8CFFF90EF90BD
S1130440DF90CF9008951F93CF93DF93182F84EFFD
S113045091E08093063E9093073E80910F3E811178
S113046061C0C0E0C431D0F481E090E0A0E0B0E02D
S1130470BC01CD010C2E04C0660F771F881F991F85
S11304800A94D2F70BDE66E970E080E090E09DDE2E
S113049080910F3E811146C0CF5FE4CF6FEF7FEFB5
S11304A08FE090E0FBDD6AD564EF71E0BAD4BC0163
S11304B06C507E4F072E000C880B990B86DE60E093
S11304C070E0CB01EBDDC1E0C53148F4612F70E091
S11304D080E090E07ADE8091123E882311F0D0E033
S11304E008C08C2F52DE80910F3E81111BC0CF5F5C
S11304F0EBCFD43108F0B1CF8C2F47DE64E670E047
S113050080E090E062DE60E070E0CB01C7DD64E68D
S113051070E080E090E059DE80910F3E811102C0CE
S1130520DF5FE7CFDF91CF911F910895CF92DF92E4
S1130530EF92FF92CF93C82F84E690E08093063E1B
S11305409093073E80910F3E811180C060E070E07F
S1130550CB01A4DD60E070E0CB0137DE81E0809365
S1130560080680910B0680FD05C060E070E0CB01B9
S11305702CDEF7CF609110067091110680E090E0B8
S113058031D320E030EC4FE754E48BD220E030E06C
S113059040E85CE3D9D39B01AC0160E070E080E209
S11305A090E47FD26B017C01C33289F0CE32E1F05A
S11305B0C11126C020E030E04AE754E4C5D3E3D2B9
S11305C06DDD64E170E080E090E0FFDDBBCF20E012
S11305D030E040E450E4F3D120E030E040E05FE379
S11305E0B3D36B017C010CC020E030E040E850E460
S11305F0E6D120E030E040E05FE3A6D36B017C016C
S11306002DEC3CEC4CE45DE3C701B60145D28823F4
S1130610A4F461E070E080E090E040DD64E670E026
S113062080E090E0D2DD60E070E0CB0137DD64E68D
S113063070E080E090E0C9DD85CFC701B601BCDD84
S113064064E670E080E090E0C0DD7CCFCF91FF9065
S1130650EF90DF90CF9008951F920F920FB60F92F4
S113066011242F933F938F939F93AF93BF93EF9353
S1130670FF938091133E8A3F28F48091133E8F5F4D
S11306808093133E8091083E8F5F8093083E8431AF
S113069010F01092083E8091083E8A3018F58111BE
S11306A019C0E0E0F4E082E082839FEF9283A0E24D
S11306B0B4E012969C93129720910E3E248390915D
S11306C00C3E14969C9314978683218311969C93D5
S11306D0818333C09091053E89132FC082E08093BB
S11306E002042BC08A30E9F4E0E0F4E082E0828383
S11306F09FEF9283A0E2B4E012969C93129720910C
S11307000D3E922F9095948390910B3E392F309506
S113071014963C9314978583218311969C9381832B
S11307200CC090E02091043E30E0265F3F4F8217DA
S1130730930719F482E08093020481E080930B0A0A
S1130740FF91EF91BF91AF919F918F913F912F9125
S11307500F900FBE0F901F901895FC0120812C3034
S113076018F42F5F20830895FC0110820895CF931D
S1130770DF931F92CDB7DEB711E088ED84BF1093ED
S11307806100E0E0F4E01082148288E080931004B9
S11307901092110410921204109213041092140473
S11307A0109215041092160410921704E0E2F4E07B
S11307B01082148210923004109231041092320488
S11307C0109233040F2EE12CFAE0FF2EF02DF701E6
S11307D0108211821287A09125110A2E000CBB0BE6
S11307E020E836E948E950E051D3DC01CB01072E7B
S11307F07AE0B695A795979587957A95D1F7702D58
S1130800BC01CD016058794687469F4F20E137E20D
S113081040E050E019D3F70126A337A31387808162
S11308208160808380E28093A00082E08093A100B5
S113083081E88093000686E08093010682E5809338
S113084002061092030610920406109205068DE12A
S1130850809306061092090610920A0610930B065E
S113086010920C061093160678946FEF7FEF8FE0CA
S113087090E014DC68EE73E080E090E0A6DC80E0B9
S113088090E08BD38C3008F0FDDB80E090E085D3E2
S11308908983E9818E2F90E08C30910508F05BC04C
S11308A0FC01E65EFF4F099422E341E061E081E050
S11308B0F0DC51C022E341E061E080E0EADC4BC0BF
S11308C022E345E062E081E0E4DC45C022E345E068
S11308D062E080E0DEDC3FC066DD3DC08ADD3BC017
S11308E08AE0B1DD38C084E6AEDD35C084E690E050
S11308F08093063E9093073E89E390E343D380912F
S11309000F3E811128C03AD36C01990FEE08FF08FD
S113091035D3092E000CAA0BBB0B072E7FE0880FE2
S1130920991FAA1FBB1F7A95D1F7702DBC01CD0169
S11309306C297D298E299F29B1DB6EE170E080E06E
S113094090E043DCDCCF83E2F1DD05C08EE2EEDD36
S113095002C080E0EBDD60E070E0CB019FDB8091C2
S1130960123E882301F160E070E0CB012EDC80911F
S1130970103E9091113E8131974288F311E0153178
S113098070F764EF71E080E090E01FDC8091123E2C
S1130990882329F3812FF9DB143119F473DB8BE0FD
S11309A089831F5FECCF10920F3E60E070E0CE01B0
S11309B00196D3DE698180E090E0F7D26ACF505887
S11309C0BB27AA270E94F7040C946A060E945C06BF
S11309D038F00E94630620F039F49F3F19F426F49E
S11309E00C9459060EF4E095E7FB0C945306E92F9A
S11309F00E947B0658F3BA176207730784079507AA
S1130A0020F079F4A6F50C949D060EF4E0950B2ED7
S1130A10BA2FA02D0B01B90190010C01CA01A0014C
S1130A201124FF27591B99F0593F50F4503E68F1A7
S1130A301A16F040A22F232F342F4427585FF3CFE8
S1130A40469537952795A795F0405395C9F77EF4B9
S1130A501F16BA0B620B730B840BBAF09150A1F002
S1130A60FF0FBB1F661F771F881FC2F70EC0BA0F88
S1130A70621F731F841F48F4879577956795B79510
S1130A80F7959E3F08F0B0CF9395880F08F099270B
S1130A90EE0F9795879508950E942F0608F481E03C
S1130AA008950E9465050C946A060E94630658F036
S1130AB00E945C0640F029F45F3F29F00C94530631
S1130AC051110C949E060C9459060E947B0668F3FF
S1130AD09923B1F3552391F3951B550BBB27AA27F3
S1130AE062177307840738F09F5F5F4F220F331F2D
S1130AF0441FAA1FA9F335D00E2E3AF0E0E832D0F5
S1130B0091505040E695001CCAF72BD0FE2F29D0F7
S1130B10660F771F881FBB1F261737074807AB07C9
S1130B20B0E809F0BB0B802DBF01FF2793585F4F3E
S1130B303AF09E3F510578F00C9453060C949E06AF
S1130B405F3FE4F3983ED4F3869577956795B79520
S1130B50F7959F5FC9F7880F911D9695879597F92B
S1130B600895E1E0660F771F881FBB1F62177307A4
S1130B708407BA0720F0621B730B840BBA0BEE1FB9
S1130B8088F7E09508950E94830688F09F5798F0AF
S1130B90B92F9927B751B0F0E1F0660F771F881F7E
S1130BA0991F1AF0BA95C9F714C0B13091F00E9498
S1130BB09D06B1E008950C949D06672F782F882731
S1130BC0B85F39F0B93FCCF3869577956795B395BF
S1130BD0D9F73EF490958095709561957F4F8F4F2E
S1130BE09F4F0895E89409C097FB3EF49095809533
S1130BF0709561957F4F8F4F9F4F9923A9F0F92FDF
S1130C0096E9BB279395F695879577956795B7955C
S1130C10F111F8CFFAF4BB0F11F460FF1BC06F5F42
S1130C207F4F8F4F9F4F16C0882311F096E911C054
S1130C30772321F09EE8872F762F05C0662371F075
S1130C4096E8862F70E060E02AF09A95660F771F89
S1130C50881FDAF7880F9695879597F90895990F65
S1130C600008550FAA0BE0E8FEEF16161706E80772
S1130C70F907C0F012161306E407F50798F0621B93
S1130C80730B840B950B39F40A2661F0232B242B68
S1130C90252B21F408950A2609F4A140A6958FEF87
S1130CA0811D811D089597F99F6780E870E060E0D9
S1130CB008959FEF80EC089500240A9416161706F1
S1130CC018060906089500240A9412161306140639
S1130CD005060895092E0394000C11F4882352F09C
S1130CE0BB0F40F4BF2B11F460FF04C06F5F7F4F54
S1130CF08F4F9F4F089557FD9058440F551F59F03B
S1130D005F3F71F04795880F97FB991F61F09F3FF4
S1130D1079F087950895121613061406551FF2CF1D
S1130D204695F1DF08C0161617061806991FF1CF6D
S1130D3086957105610508940895E894BB27662794
S1130D407727CB0197F908950E94B7060C946A0699
S1130D500E945C0638F00E94630620F0952311F08F
S1130D600C9453060C94590611240C949E060E946C
S1130D707B0670F3959FC1F3950F50E0551F629F5A
S1130D80F001729FBB27F00DB11D639FAA27F00DE0
S1130D90B11DAA1F649F6627B00DA11D661F829F07
S1130DA02227B00DA11D621F739FB00DA11D621FEC
S1130DB0839FA00D611D221F749F3327A00D611D09
S1130DC0231F849F600D211D822F762F6A2F1124EB
S1130DD09F5750409AF0F1F088234AF0EE0FFF1F1E
S1130DE0BB1F661F771F881F91505040A9F79E3F75
S1130DF0510580F00C9453060C949E065F3FE4F377
S1130E00983ED4F3869577956795B795F795E795CA
S1130E109F5FC1F7FE2B880F911D9695879597F9D3
S1130E20089597FB072E16F4009406D077FD08D09A
S1130E3033D007FC05D03EF4909581959F4F0895DB
S1130E40709561957F4F0895A1E21A2EAA1BBB1BD2
S1130E50FD010DC0AA1FBB1FEE1FFF1FA217B30782
S1130E60E407F50720F0A21BB30BE40BF50B661F98
S1130E70771F881F991F1A9469F76095709580955C
S1130E8090959B01AC01BD01CF010895B7FF18C037
S1130E9017D0821B930B0895AA1BBB1B51E107C0FB
S1130EA0AA1FBB1FA617B70710F0A61BB70B881FF6
S1130EB0991F5A95A9F780959095BC01CD01089585
S1130EC009D0A59F900DB49F900DA49F800D911DF6
S1130ED011240895A29FB001B39FC001A39F01D024
S1130EE0B29F700D811D1124911D08958F929F92C0
S1130EF0AF92BF92CF92DF92EF92FF92CF93DF93A4
S1130F00EC01688179818A819B8161157105810574
S1130F10910521F464E279ED8BE597E02DE133EF5F
S1130F2041E050E06DD049015A019B01AC01A7EAB0
S1130F30B1E4C6DF6B017C01ACEEB4EFA501940112
S1130F40A7DFDC01CB018C0D9D1DAE1DBF1DB7FFBE
S1130F5003C00197A109B04888839983AA83BB83FE
S1130F609F77DF91CF91FF90EF90DF90CF90BF906C
S1130F70AF909F908F900895B9DF089580E09EE32D
S1130F80B5DF0895A0E0B0E08093003E9093013E69
S1130F90A093023EB093033E089503D08081992725
S1130FA00895FC01E050FC4E0895262F0E94D107BD
S1130FB00080021619F00E94ED0701970197089529
S1130FC00396272F0E94D6070E94D507252F0E943B
S1130FD0D607242F0C94D607262FAF93BF93E0E0B7
S1130FE0F0E1328131FDFDCFDC01A050BC4E2C93E9
S1130FF02DE924BF23E020830196BF91AF9108958A
S1131000052E97FB16F400940FD057FD05D01CDF76
S113101007FC02D046F408C05095409530952195C0
S11310203F4F4F4F5F4F0895909580957095619510
S10F10307F4F8F4F9F4F0895F894FFCF1F
S10B103C010000000101640041
S9030000FC
