S015000062657A2D737665746C6F3831342E7372656367
S113000025C03FC03EC03DC03CC03BC03AC039C023
S113001035C537C036C035C034C033C032C031C036
S113002030C02FC02EC02DC02CC02BC02AC029C068
S113003028C027C0A5C4A8C4ADC4B1C4B4C4B5C441
S1130040BBC4B5C4B7C4E1C4E2C4E3C411241FBE35
S1130050CFEFCDBFDFE3DEBF1EE3A0E0BEE3E4E20B
S1130060F2E102C005900D92A830B107D9F72EE352
S1130070A8E0BEE301C01D92A631B207E1F7DCD3CC
S1130080BBC8BECF42ED52E066E979E481E090E07E
S113009077D860E080E090E068C8AF92BF92DF92CA
S11300A0EF92FF920F931F93CF93DF93E0E0F0E082
S11300B040E050E0A0E0B0E0C62FC1702C2F8F01CB
S11300C01595079501C0220F0A95EAF7E0FF03C0D2
S11300D0A22B4C0F02C0B22B5C0F96958795779597
S11300E067953196E830F10539F7E0E0F0E0C0E0DB
S11300F0D0E007E010E0262F2170D22E7F01F59486
S1130100E7945801AE18BF0801C0220FAA94EAF779
S1130110E0FF03C0C22B4D0D02C0D22B5D0D96959E
S11301208795779567953196EC30F10521F7F8942A
S1130130D0930E3EC0930D3EB0930C3EA0930B3E65
S11301405093053E4093043E7894DF91CF911F91E4
S11301500F91FF90EF90DF90BF90AF900895282FFC
S1130160853108F024E181E090E0A0E0B0E004C033
S1130170880F991FAA1FBB1F2A95D2F7BC01CD0176
S1130180615071098109910988CF20E030E040EA8B
S113019051E4B3D6D1D5862FE2CFCF92DF92EF923E
S11301A0FF92CF93DF93611571058105910511F0DD
S11301B01092153ED091093E50910A3E4091123E54
S11301C02091103E3091113EE091063EF091073EA1
S11301D0C0910F3EC12CD12C7601A1E0B091153E07
S11301E0BA3020F1B091153EBA50B093153EBFEF2E
S11301F0CB1ADB0AEB0AFB0AB0910804B170BA27E8
S11302005B1306C0DF5FD63020F04B2FD5E001C072
S1130210D0E0442369F02F3F5FEF350711F02F5FE3
S11302203F4FE217F30730F4C1E004C0B52F02C01A
S113023020E030E0C616D706E806F90610F45B2F76
S1130240CDCFB0930A3ED093093E4093123E209303
S1130250103E3093113EC0930F3EDF91CF91FF903B
S1130260EF90DF90CF9008958F929F92AF92BF92BC
S1130270CF92DF92EF92FF920F931F93CF93DF936E
S1130280D82FC62F822F90E0880F991F8093063EA7
S11302909093073E6C2F70E084E190E09BD680E061
S11302A090E030E0C12CD12C760101E010E03C1349
S11302B00AC0DD2311F013E101C010E0822E912C5D
S11302C0A12CB12C40C0FC015E2F581B541788F49C
S11302D0D8010E2E02C0AA0FBB1F0A94E2F74D01EB
S11302E0BB0FAA08BB08C828D928EA28FB283196DE
S11302F0EBCF3F5F860F971FDACF80910F3E8111BE
S113030022C0D701C601DD2321F188279927A870CF
S1130310BB2743E1B695A795979587954A95D1F75D
S1130320CC0CDD1CEE1CFF1CC82AD92AEA2AFB2AA5
S1130330C701B601B2DEC501B4012FDFDD23C9F068
S1130340C150C431D0F280910F3E811114C0C12F2D
S1130350D4CF81709927AA27BB2723E1880F991F3F
S1130360AA1FBB1F2A95D1F7F694E794D794C79494
S1130370DBCFCF5FE6CFDF91CF911F910F91FF903D
S1130380EF90DF90CF90BF90AF909F908F900895A3
S1130390CF92DF92EF92FF9288EB9BE08093063E30
S11303A09093073EC12CD12C760180910F3E811190
S11303B010C0CC0CDD1CEE1CFF1C8091123EC82A20
S11303C0C701B6016ADE66E970E080E090E0E5DE30
S11303D0ECCFFF90EF90DF90CF900895CF92DF9213
S11303E0EF92FF9284E690E08093063E9093073E5E
S11303F0C12CD12C7601C701B6014FDE6AE070E052
S113040080E090E0CADE80910F3E81110CC08FEF36
S1130410C81AD80AE80AF80AC114D10480E1E80627
S1130420F10449F7E5CFFF90EF90DF90CF90089566
S11304308F929F92AF92BF92CF92DF92EF92FF92F0
S11304400F931F93CF93DF932CEB32E02093063E60
S11304503093073E823328F4812C912C54018394E9
S113046005C093E0892E912CA12CB12C04EF11E04E
S1130470C82ED12CE12CF12C80910F3E81115BC050
S1130480C0E0D0E0C501B4010C2E04C0660F771F94
S1130490881F991F0A94D2F700DE66E970E080E0B5
S11304A090E07BDE80910F3E811145C02196C431DE
S11304B0D10541F76FEF7FEF8FE090E0EEDD37D6A7
S11304C0B80188D5BC016C507E4F072E000C880BF8
S11304D0990B63DE60E070E0CB01DFDD8091123EBA
S11304E0811110C0C1E0C701B60157DE8091123EF0
S11304F0811109C080910F3E81111DC0CF5FC531AC
S113050091F701C0C4E1D4E18C2F29DE64E670E0E8
S113051080E090E042DE60E070E0CB01BEDD64E6A6
S113052070E080E090E039DE80910F3E811103C0DD
S1130530D15051F7A1CFDF91CF911F910F91FF902F
S1130540EF90DF90CF90BF90AF909F908F900895E1
S11305508F929F92AF92BF92CF92DF92EF92FF92CF
S11305600F931F93CF93DF93CDB7DEB7A897CDBF7B
S1130570DEBF88E2ECEFF1E9DE01119601900D9205
S11305808A95E1F78CEB92E08093063E9093073EC8
S113059083E0882E912CA12CB12C94EFE92EFF241A
S11305A0F39480910F3E811174C000E010E0C50106
S11305B0B401002E04C0660F771F881F991F0A9488
S11305C0D2F76BDD66E970E080E090E0E6DD8091D3
S11305D00F3E81115EC00F5F1F4F0431110539F7C3
S11305E06FEF7FEF8FE090E058DDA1D5B701F2D433
S11305F0BC016C507E4F072E000C880B990BCDDD8F
S113060060E070E0CB0149DDF8941092133E109243
S1130610143E78948091123E811122C0CE0101963D
S11306206C0111E08091133E9091143EF6012081FB
S113063031818217930728F460E070E0CB01ADDDCF
S1130640F1CF8091123E81110CC080910F3E811137
S113065020C01F5FF2E0CF0ED11C153119F701C085
S113066014E104E1812F7BDD64E670E080E090E03A
S113067094DD60E070E0CB0110DD64E670E080E0C2
S113068090E08BDD80910F3E811103C0015051F742
S113069088CFA896CDBFDEBFDF91CF911F910F9178
S11306A0FF90EF90DF90CF90BF90AF909F908F908E
S11306B00895CF92DF92EF92FF920F931F93CF93FF
S11306C0DF93F82E84E690E08093063E9093073EF5
S11306D080E2E82E90E4D92ECC24C39480910F3E7E
S11306E08111A1C060E070E0CB01D7DC61E070E073
S11306F080E090E052DDF11003C0D092A00002C06F
S1130700E092A000C092080680910B0680FD05C00F
S113071060E070E0CB0141DDF7CF6091100670918D
S1130720110680E090E037D320E030EC4FE754E44A
S113073091D220E030E040E85CE3DFD39B01AC01E0
S1130740FF2089F060E070E080E290E483D2DB0176
S1130750F82FE92F8B01EF0183E2F81681F08EE286
S1130760F81611F13DC060E070E88BEB94E472D2AE
S1130770E3D293DC64E170E080E090E052C020E0DA
S113078030E040E450E4BD018F2F9E2FF1D120E0F2
S113079030E040E05FE3B1D38B01D82FC92F2DECBB
S11307A03CEC4CE45DE323C020E030E040E850E45E
S11307B0BD018F2F9E2FDCD120E030E040E05FE3CD
S11307C09CD38B01D82FC92F2DEC3CEC4CE45DE37A
S11307D03CD287FF1EC063E070E080E090E00EC072
S11307E02DEC3CEC4CE45DE3BD018F2F9E2F2DD20C
S11307F087FF0FC061E070E080E090E04EDC64E6CB
S113080070E080E090E0C9DC60E070E0CB0145DCA2
S113081004C0B8018D2F9C2FB8DC64E670E080E042
S113082090E0BBDC5BCFDF91CF911F910F91FF90E4
S1130830EF90DF90CF900895C1E088ED84BFC0931E
S11308406100109200041092040488E08093100464
S113085010921104109212041092130410921404B2
S1130860109215041092160410921704109220048A
S11308701092240410923004109231041092320425
S1130880109233041092000A1092010AC0930A0ACB
S1130890A09125110A2E000CBB0B20E836E948E98B
S11308A050E0CDD3DC01CB013AE0B695A7959795FE
S11308B087953A95D1F7BC01CD01605879468746B2
S11308C09F4F20E137E240E050E097D32093260A7F
S11308D03093270AC0930B0A8091000A81608093A9
S11308E0000A80E28093A00082E08093A10081E866
S11308F08093000686E08093010682E580930206D9
S11309001092030610920406109205068DE180935E
S113091006061092090610920A06C0930B0610925E
S11309200C06C093160678946FEF7FEF8FE090E08B
S1130930B4DB68EE73E080E090E02FDC8091123E3F
S11309408111F7CF80E090E001D48C3040F481E055
S113095090E004D4623D72408649994409F092DBE8
S113096080E090E0F3D3C82F04E610E08C2F90E0F1
S11309708C30910508F04FC0FC01E65EFF4F0994EE
S113098022E342E061E009C022E342E061E080E06A
S11309906BDC41C022E343E063E081E0F9CF22E372
S11309A043E063E0F4CFF4DC36C018DD34C084E106
S11309B03FDD31C0CDDD2FC00093063E1093073ECE
S11309C089E390E3B8D380910F3E811124C0AFD363
S11309D06C01990FEE08FF08AAD3092E000CAA0B8C
S11309E0BB0B2FE0880F991FAA1FBB1F2A95D1F7B5
S11309F0BC01CD016C297D298E299F294EDB6EE136
S1130A0070E080E090E0C9DBDECF83E203C08EE2D9
S1130A1001C080E04EDE60E070E0CB013EDB8091FF
S1130A20123E8823F9F060E070E0CB01B6DB8091E0
S1130A30103E9091113E8131974288F3D1E064EFEA
S1130A4071E080E090E0A9DB8091123E882339F3C5
S1130A508D2F85DBD43111F415DBCBE0DF5FD5318D
S1130A6071F7DDCF10920F3ECC3010F4CF5F01C090
S1130A70C0E06C2F80E090E078D378CF1F920F9283
S1130A800FB60F9211242F933F938F939F938091CE
S1130A90153E8A3F28F48091153E8F5F8093153E62
S1130AA08091133E9091143E01968093133E90934F
S1130AB0143E8091083E8F5F843118F48093083E81
S1130AC002C01092083E8091083E8A30E0F4811101
S1130AD015C082E0809302048FEF809322048093F8
S1130AE0020490910C3E9093240480910E3E282F92
S1130AF02D7F20930404909321041EC09091053E01
S1130B0089132AC026C08A30D9F482E08093020473
S1130B108FEF809322048093020420910B3E822F56
S1130B2080958093240480910D3E982F9095926037
S1130B3090930404209321048260809301040CC0E8
S1130B4090E02091043E30E0265F3F4F82179307E8
S1130B5019F482E08093020481E080930B0A9F9150
S1130B608F913F912F910F900FBE0F901F9018956A
S1130B705058BB27AA270E94D0050C9443070E9413
S1130B80350738F00E943C0720F039F49F3F19F4F0
S1130B9026F40C9432070EF4E095E7FB0C942C0732
S1130BA0E92F0E94540758F3BA17620773078407A2
S1130BB0950720F079F4A6F50C9476070EF4E095E9
S1130BC00B2EBA2FA02D0B01B90190010C01CA0103
S1130BD0A0011124FF27591B99F0593F50F4503EAE
S1130BE068F11A16F040A22F232F342F4427585FA0
S1130BF0F3CF469537952795A795F0405395C9F7B8
S1130C007EF41F16BA0B620B730B840BBAF091506F
S1130C10A1F0FF0FBB1F661F771F881FC2F70EC00E
S1130C20BA0F621F731F841F48F4879577956795E1
S1130C30B795F7959E3F08F0B0CF9395880F08F0CD
S1130C409927EE0F9795879508950E94080708F451
S1130C5081E008950E943E060C9443070E943C07DD
S1130C6058F00E94350740F029F45F3F29F00C94B6
S1130C702C0751110C9477070C9432070E945407E7
S1130C8068F39923B1F3552391F3951B550BBB27B7
S1130C90AA2762177307840738F09F5F5F4F220FFC
S1130CA0331F441FAA1FA9F335D00E2E3AF0E0E8F3
S1130CB032D091505040E695001CCAF72BD0FE2F3D
S1130CC029D0660F771F881FBB1F261737074807D1
S1130CD0AB07B0E809F0BB0B802DBF01FF27935889
S1130CE05F4F3AF09E3F510578F00C942C070C941A
S1130CF077075F3FE4F3983ED4F38695779567953D
S1130D00B795F7959F5FC9F7880F911D96958795BD
S1130D1097F90895E1E0660F771F881FBB1F6217DC
S1130D2073078407BA0720F0621B730B840BBA0B9A
S1130D30EE1F88F7E09508950E945C0788F09F579E
S1130D4098F0B92F9927B751B0F0E1F0660F771FEB
S1130D50881F991F1AF0BA95C9F714C0B13091F0E1
S1130D600E947607B1E008950C947607672F782FD8
S1130D708827B85F39F0B93FCCF3869577956795A6
S1130D80B395D9F73EF490958095709561957F4F12
S1130D908F4F9F4F0895E89409C097FB3EF49095B8
S1130DA08095709561957F4F8F4F9F4F9923A9F040
S1130DB0F92F96E9BB279395F695879577956795CF
S1130DC0B795F111F8CFFAF4BB0F11F460FF1BC013
S1130DD06F5F7F4F8F4F9F4F16C0882311F096E9A6
S1130DE011C0772321F09EE8872F762F05C0662354
S1130DF071F096E8862F70E060E02AF09A95660F0D
S1130E00771F881FDAF7880F9695879597F90895C5
S1130E10990F0008550FAA0BE0E8FEEF1616170607
S1130E20E807F907C0F012161306E407F50798F06F
S1130E30621B730B840B950B39F40A2661F0232B88
S1130E40242B252B21F408950A2609F4A140A69504
S1130E508FEF811D811D089597F99F6780E870E0E9
S1130E6060E008959FEF80EC089500240A9416161C
S1130E70170618060906089500240A941216130684
S1130E80140605060895092E0394000C11F4882312
S1130E9052F0BB0F40F4BF2B11F460FF04C06F5F2E
S1130EA07F4F8F4F9F4F089557FD9058440F551F04
S1130EB059F05F3F71F04795880F97FB991F61F0D8
S1130EC09F3F79F087950895121613061406551F4F
S1130ED0F2CF4695F1DF08C0161617061806991FBB
S1130EE0F1CF86957105610508940895E894BB27B0
S1130EF066277727CB0197F908950E9490070C94F1
S1130F0043070E94350738F00E943C0720F09523E0
S1130F1011F00C942C070C94320711240C947707CD
S1130F200E94540770F3959FC1F3950F50E0551F2D
S1130F30629FF001729FBB27F00DB11D639FAA272A
S1130F40F00DB11DAA1F649F6627B00DA11D661F79
S1130F50829F2227B00DA11D621F739FB00DA11D9A
S1130F60621F839FA00D611D221F749F3327A00D54
S1130F70611D231F849F600D211D822F762F6A2FF0
S1130F8011249F5750409AF0F1F088234AF0EE0F55
S1130F90FF1FBB1F661F771F881F91505040A9F782
S1130FA09E3F510580F00C942C070C9477075F3F0B
S1130FB0E4F3983ED4F3869577956795B795F795BE
S1130FC0E7959F5FC1F7FE2B880F911D9695879536
S1130FD097F9089597FB072E16F4009406D077FD31
S1130FE008D033D007FC05D03EF4909581959F4FEF
S1130FF00895709561957F4F0895A1E21A2EAA1B5A
S1131000BB1BFD010DC0AA1FBB1FEE1FFF1FA217B4
S1131010B307E407F50720F0A21BB30BE40BF50BB1
S1131020661F771F881F991F1A9469F7609570953A
S1131030809590959B01AC01BD01CF010895B7FF48
S113104018C017D0821B930B0895AA1BBB1B51E138
S113105007C0AA1FBB1FA617B70710F0A61BB70B24
S1131060881F991F5A95A9F780959095BC01CD01C9
S1131070089509D0A59F900DB49F900DA49F800D55
S1131080911D11240895A29FB001B39FC001A39F95
S113109001D0B29F700D811D1124911D08958F926E
S11310A09F92AF92BF92CF92DF92EF92FF92CF9333
S11310B0DF93EC01688179818A819B8161157105D7
S11310C08105910521F464E279ED8BE597E02DE14A
S11310D033EF41E050E074D049015A019B01AC0167
S11310E0A7EAB1E4C6DF6B017C01ACEEB4EFA50165
S11310F09401A7DFDC01CB018C0D9D1DAE1DBF1D2E
S1131100B7FF03C00197A109B04888839983AA83D4
S1131110BB839F77DF91CF91FF90EF90DF90CF90CB
S1131120BF90AF909F908F900895B9DF089580E0AD
S11311309EE3B5DF0895A0E0B0E08093003E909375
S1131140013EA093023EB093033E089503D08081F4
S113115099270895FC01E050FC4E08950E94AA08C6
S113116060817181828193810895262F0E94AA084B
S11311700080021619F00E94CD0801970197089586
S11311800396272F0E94B6080E94B508252F0E94B7
S1131190B608242F0C94B608262FAF93BF93E0E033
S11311A0F0E1328131FDFDCFDC01A050BC4E2C9327
S11311B02DE924BF23E020830196BF91AF910895C8
S11311C0052E97FB16F400940FD057FD05D015DFBC
S11311D007FC02D046F408C05095409530952195FF
S11311E03F4F4F4F5F4F089590958095709561954F
S10F11F07F4F8F4F9F4F0895F894FFCF5E
S11311FC7E009E00C800FB003C018E01F5017602C6
S113120C1A03E803EB043106CB07D0095A0C8D0FF3
S10B121C9413A518071F102705
S10B1224010000000101640057
S9030000FC
